{
  "_format": "hh-sol-artifact-1",
  "contractName": "MyEpicGame",
  "sourceName": "contracts/MyEpicGame.sol",
  "abi": [
    {
      "inputs": [
        {
          "internalType": "string[]",
          "name": "characterNames",
          "type": "string[]"
        },
        {
          "internalType": "string[]",
          "name": "characterImageURIs",
          "type": "string[]"
        },
        {
          "internalType": "uint256[]",
          "name": "characterHp",
          "type": "uint256[]"
        }
      ],
      "stateMutability": "nonpayable",
      "type": "constructor"
    },
    {
      "anonymous": false,
      "inputs": [
        {
          "indexed": true,
          "internalType": "address",
          "name": "owner",
          "type": "address"
        },
        {
          "indexed": true,
          "internalType": "address",
          "name": "approved",
          "type": "address"
        },
        {
          "indexed": true,
          "internalType": "uint256",
          "name": "tokenId",
          "type": "uint256"
        }
      ],
      "name": "Approval",
      "type": "event"
    },
    {
      "anonymous": false,
      "inputs": [
        {
          "indexed": true,
          "internalType": "address",
          "name": "owner",
          "type": "address"
        },
        {
          "indexed": true,
          "internalType": "address",
          "name": "operator",
          "type": "address"
        },
        {
          "indexed": false,
          "internalType": "bool",
          "name": "approved",
          "type": "bool"
        }
      ],
      "name": "ApprovalForAll",
      "type": "event"
    },
    {
      "anonymous": false,
      "inputs": [
        {
          "indexed": false,
          "internalType": "address",
          "name": "sender",
          "type": "address"
        },
        {
          "indexed": false,
          "internalType": "uint256",
          "name": "tokenId",
          "type": "uint256"
        },
        {
          "indexed": false,
          "internalType": "uint256",
          "name": "characterIndex",
          "type": "uint256"
        }
      ],
      "name": "CharacterNFTMinted",
      "type": "event"
    },
    {
      "anonymous": false,
      "inputs": [
        {
          "indexed": true,
          "internalType": "address",
          "name": "from",
          "type": "address"
        },
        {
          "indexed": true,
          "internalType": "address",
          "name": "to",
          "type": "address"
        },
        {
          "indexed": true,
          "internalType": "uint256",
          "name": "tokenId",
          "type": "uint256"
        }
      ],
      "name": "Transfer",
      "type": "event"
    },
    {
      "inputs": [
        {
          "internalType": "address",
          "name": "to",
          "type": "address"
        },
        {
          "internalType": "uint256",
          "name": "tokenId",
          "type": "uint256"
        }
      ],
      "name": "approve",
      "outputs": [],
      "stateMutability": "nonpayable",
      "type": "function"
    },
    {
      "inputs": [
        {
          "internalType": "address",
          "name": "owner",
          "type": "address"
        }
      ],
      "name": "balanceOf",
      "outputs": [
        {
          "internalType": "uint256",
          "name": "",
          "type": "uint256"
        }
      ],
      "stateMutability": "view",
      "type": "function"
    },
    {
      "inputs": [],
      "name": "checkIfUserHasNFT",
      "outputs": [
        {
          "components": [
            {
              "internalType": "uint256",
              "name": "characterIndex",
              "type": "uint256"
            },
            {
              "internalType": "string",
              "name": "name",
              "type": "string"
            },
            {
              "internalType": "string",
              "name": "imageURI",
              "type": "string"
            },
            {
              "internalType": "uint256",
              "name": "hp",
              "type": "uint256"
            }
          ],
          "internalType": "struct MyEpicGame.CharacterAttributes",
          "name": "",
          "type": "tuple"
        }
      ],
      "stateMutability": "view",
      "type": "function"
    },
    {
      "inputs": [],
      "name": "getAllDefaultCharacters",
      "outputs": [
        {
          "components": [
            {
              "internalType": "uint256",
              "name": "characterIndex",
              "type": "uint256"
            },
            {
              "internalType": "string",
              "name": "name",
              "type": "string"
            },
            {
              "internalType": "string",
              "name": "imageURI",
              "type": "string"
            },
            {
              "internalType": "uint256",
              "name": "hp",
              "type": "uint256"
            }
          ],
          "internalType": "struct MyEpicGame.CharacterAttributes[]",
          "name": "",
          "type": "tuple[]"
        }
      ],
      "stateMutability": "view",
      "type": "function"
    },
    {
      "inputs": [
        {
          "internalType": "uint256",
          "name": "tokenId",
          "type": "uint256"
        }
      ],
      "name": "getApproved",
      "outputs": [
        {
          "internalType": "address",
          "name": "",
          "type": "address"
        }
      ],
      "stateMutability": "view",
      "type": "function"
    },
    {
      "inputs": [
        {
          "internalType": "address",
          "name": "owner",
          "type": "address"
        },
        {
          "internalType": "address",
          "name": "operator",
          "type": "address"
        }
      ],
      "name": "isApprovedForAll",
      "outputs": [
        {
          "internalType": "bool",
          "name": "",
          "type": "bool"
        }
      ],
      "stateMutability": "view",
      "type": "function"
    },
    {
      "inputs": [
        {
          "internalType": "uint256",
          "name": "_characterIndex",
          "type": "uint256"
        }
      ],
      "name": "mintCharacterNFT",
      "outputs": [],
      "stateMutability": "nonpayable",
      "type": "function"
    },
    {
      "inputs": [],
      "name": "name",
      "outputs": [
        {
          "internalType": "string",
          "name": "",
          "type": "string"
        }
      ],
      "stateMutability": "view",
      "type": "function"
    },
    {
      "inputs": [
        {
          "internalType": "uint256",
          "name": "",
          "type": "uint256"
        }
      ],
      "name": "nftHolderAttributes",
      "outputs": [
        {
          "internalType": "uint256",
          "name": "characterIndex",
          "type": "uint256"
        },
        {
          "internalType": "string",
          "name": "name",
          "type": "string"
        },
        {
          "internalType": "string",
          "name": "imageURI",
          "type": "string"
        },
        {
          "internalType": "uint256",
          "name": "hp",
          "type": "uint256"
        }
      ],
      "stateMutability": "view",
      "type": "function"
    },
    {
      "inputs": [
        {
          "internalType": "address",
          "name": "",
          "type": "address"
        },
        {
          "internalType": "uint256",
          "name": "",
          "type": "uint256"
        }
      ],
      "name": "nftHolders",
      "outputs": [
        {
          "internalType": "uint256",
          "name": "",
          "type": "uint256"
        }
      ],
      "stateMutability": "view",
      "type": "function"
    },
    {
      "inputs": [
        {
          "internalType": "uint256",
          "name": "tokenId",
          "type": "uint256"
        }
      ],
      "name": "ownerOf",
      "outputs": [
        {
          "internalType": "address",
          "name": "",
          "type": "address"
        }
      ],
      "stateMutability": "view",
      "type": "function"
    },
    {
      "inputs": [
        {
          "internalType": "address",
          "name": "from",
          "type": "address"
        },
        {
          "internalType": "address",
          "name": "to",
          "type": "address"
        },
        {
          "internalType": "uint256",
          "name": "tokenId",
          "type": "uint256"
        }
      ],
      "name": "safeTransferFrom",
      "outputs": [],
      "stateMutability": "nonpayable",
      "type": "function"
    },
    {
      "inputs": [
        {
          "internalType": "address",
          "name": "from",
          "type": "address"
        },
        {
          "internalType": "address",
          "name": "to",
          "type": "address"
        },
        {
          "internalType": "uint256",
          "name": "tokenId",
          "type": "uint256"
        },
        {
          "internalType": "bytes",
          "name": "_data",
          "type": "bytes"
        }
      ],
      "name": "safeTransferFrom",
      "outputs": [],
      "stateMutability": "nonpayable",
      "type": "function"
    },
    {
      "inputs": [
        {
          "internalType": "address",
          "name": "operator",
          "type": "address"
        },
        {
          "internalType": "bool",
          "name": "approved",
          "type": "bool"
        }
      ],
      "name": "setApprovalForAll",
      "outputs": [],
      "stateMutability": "nonpayable",
      "type": "function"
    },
    {
      "inputs": [
        {
          "internalType": "bytes4",
          "name": "interfaceId",
          "type": "bytes4"
        }
      ],
      "name": "supportsInterface",
      "outputs": [
        {
          "internalType": "bool",
          "name": "",
          "type": "bool"
        }
      ],
      "stateMutability": "view",
      "type": "function"
    },
    {
      "inputs": [],
      "name": "symbol",
      "outputs": [
        {
          "internalType": "string",
          "name": "",
          "type": "string"
        }
      ],
      "stateMutability": "view",
      "type": "function"
    },
    {
      "inputs": [
        {
          "internalType": "uint256",
          "name": "_tokenId",
          "type": "uint256"
        }
      ],
      "name": "tokenURI",
      "outputs": [
        {
          "internalType": "string",
          "name": "",
          "type": "string"
        }
      ],
      "stateMutability": "view",
      "type": "function"
    },
    {
      "inputs": [
        {
          "internalType": "address",
          "name": "from",
          "type": "address"
        },
        {
          "internalType": "address",
          "name": "to",
          "type": "address"
        },
        {
          "internalType": "uint256",
          "name": "tokenId",
          "type": "uint256"
        }
      ],
      "name": "transferFrom",
      "outputs": [],
      "stateMutability": "nonpayable",
      "type": "function"
    }
  ],
  "bytecode": "0x60806040523480156200001157600080fd5b5060405162004852380380620048528339818101604052810190620000379190620007b6565b6040518060400160405280600381526020017f43313400000000000000000000000000000000000000000000000000000000008152506040518060400160405280600381526020017f43313400000000000000000000000000000000000000000000000000000000008152508160009080519060200190620000bb92919062000549565b508060019080519060200190620000d492919062000549565b50505060005b83518110156200043d576007604051806080016040528083815260200186848151811062000131577f4e487b7100000000000000000000000000000000000000000000000000000000600052603260045260246000fd5b6020026020010151815260200185848151811062000178577f4e487b7100000000000000000000000000000000000000000000000000000000600052603260045260246000fd5b60200260200101518152602001848481518110620001bf577f4e487b7100000000000000000000000000000000000000000000000000000000600052603260045260246000fd5b602002602001015181525090806001815401808255809150506001900390600052602060002090600402016000909190919091506000820151816000015560208201518160010190805190602001906200021b92919062000549565b5060408201518160020190805190602001906200023a92919062000549565b5060608201518160030155505060006007828154811062000284577f4e487b7100000000000000000000000000000000000000000000000000000000600052603260045260246000fd5b906000526020600020906004020160405180608001604052908160008201548152602001600182018054620002b99062000a81565b80601f0160208091040260200160405190810160405280929190818152602001828054620002e79062000a81565b8015620003385780601f106200030c5761010080835404028352916020019162000338565b820191906000526020600020905b8154815290600101906020018083116200031a57829003601f168201915b50505050508152602001600282018054620003539062000a81565b80601f0160208091040260200160405190810160405280929190818152602001828054620003819062000a81565b8015620003d25780601f10620003a657610100808354040283529160200191620003d2565b820191906000526020600020905b815481529060010190602001808311620003b457829003601f168201915b505050505081526020016003820154815250509050620004256040518060600160405280602581526020016200482d602591398260200151836060015184604001516200045e60201b620014fe1760201c565b50600181620004359190620009e4565b9050620000da565b506200045560066200050a60201b620015a01760201c565b50505062000ba5565b62000504848484846040516024016200047b9493929190620008a9565b6040516020818303038152906040527f8d142cdd000000000000000000000000000000000000000000000000000000007bffffffffffffffffffffffffffffffffffffffffffffffffffffffff19166020820180517bffffffffffffffffffffffffffffffffffffffffffffffffffffffff83818316178352505050506200052060201b60201c565b50505050565b6001816000016000828254019250508190555050565b60008151905060006a636f6e736f6c652e6c6f679050602083016000808483855afa5050505050565b828054620005579062000a81565b90600052602060002090601f0160209004810192826200057b5760008555620005c7565b82601f106200059657805160ff1916838001178555620005c7565b82800160010185558215620005c7579182015b82811115620005c6578251825591602001919060010190620005a9565b5b509050620005d69190620005da565b5090565b5b80821115620005f5576000816000905550600101620005db565b5090565b6000620006106200060a8462000934565b6200090b565b9050808382526020820190508260005b8581101562000654578151850162000639888262000772565b84526020840193506020830192505060018101905062000620565b5050509392505050565b6000620006756200066f8462000963565b6200090b565b905080838252602082019050828560208602820111156200069557600080fd5b60005b85811015620006c95781620006ae88826200079f565b84526020840193506020830192505060018101905062000698565b5050509392505050565b6000620006ea620006e48462000992565b6200090b565b9050828152602081018484840111156200070357600080fd5b6200071084828562000a4b565b509392505050565b600082601f8301126200072a57600080fd5b81516200073c848260208601620005f9565b91505092915050565b600082601f8301126200075757600080fd5b8151620007698482602086016200065e565b91505092915050565b600082601f8301126200078457600080fd5b815162000796848260208601620006d3565b91505092915050565b600081519050620007b08162000b8b565b92915050565b600080600060608486031215620007cc57600080fd5b600084015167ffffffffffffffff811115620007e757600080fd5b620007f58682870162000718565b935050602084015167ffffffffffffffff8111156200081357600080fd5b620008218682870162000718565b925050604084015167ffffffffffffffff8111156200083f57600080fd5b6200084d8682870162000745565b9150509250925092565b60006200086482620009c8565b620008708185620009d3565b93506200088281856020860162000a4b565b6200088d8162000b7a565b840191505092915050565b620008a38162000a41565b82525050565b60006080820190508181036000830152620008c5818762000857565b90508181036020830152620008db818662000857565b9050620008ec604083018562000898565b818103606083015262000900818462000857565b905095945050505050565b6000620009176200092a565b905062000925828262000ab7565b919050565b6000604051905090565b600067ffffffffffffffff82111562000952576200095162000b4b565b5b602082029050602081019050919050565b600067ffffffffffffffff82111562000981576200098062000b4b565b5b602082029050602081019050919050565b600067ffffffffffffffff821115620009b057620009af62000b4b565b5b620009bb8262000b7a565b9050602081019050919050565b600081519050919050565b600082825260208201905092915050565b6000620009f18262000a41565b9150620009fe8362000a41565b9250827fffffffffffffffffffffffffffffffffffffffffffffffffffffffffffffffff0382111562000a365762000a3562000aed565b5b828201905092915050565b6000819050919050565b60005b8381101562000a6b57808201518184015260208101905062000a4e565b8381111562000a7b576000848401525b50505050565b6000600282049050600182168062000a9a57607f821691505b6020821081141562000ab15762000ab062000b1c565b5b50919050565b62000ac28262000b7a565b810181811067ffffffffffffffff8211171562000ae45762000ae362000b4b565b5b80604052505050565b7f4e487b7100000000000000000000000000000000000000000000000000000000600052601160045260246000fd5b7f4e487b7100000000000000000000000000000000000000000000000000000000600052602260045260246000fd5b7f4e487b7100000000000000000000000000000000000000000000000000000000600052604160045260246000fd5b6000601f19601f8301169050919050565b62000b968162000a41565b811462000ba257600080fd5b50565b613c788062000bb56000396000f3fe608060405234801561001057600080fd5b50600436106101165760003560e01c806395d89b41116100a2578063b953084e11610071578063b953084e14610306578063c87b56dd14610324578063c8cf27f414610354578063e985e9c514610372578063f8b81ef7146103a257610116565b806395d89b411461027d57806398da4c951461029b578063a22cb465146102ce578063b88d4fde146102ea57610116565b806323b872dd116100e957806323b872dd146101b557806342842e0e146101d15780636352211e146101ed57806370a082311461021d578063775bb50e1461024d57610116565b806301ffc9a71461011b57806306fdde031461014b578063081812fc14610169578063095ea7b314610199575b600080fd5b610135600480360381019061013091906127f6565b6103be565b6040516101429190612ed6565b60405180910390f35b6101536104a0565b6040516101609190612ef1565b60405180910390f35b610183600480360381019061017e9190612848565b610532565b6040516101909190612e16565b60405180910390f35b6101b360048036038101906101ae91906127ba565b6105b7565b005b6101cf60048036038101906101ca91906126b4565b6106cf565b005b6101eb60048036038101906101e691906126b4565b61072f565b005b61020760048036038101906102029190612848565b61074f565b6040516102149190612e16565b60405180910390f35b6102376004803603810190610232919061264f565b610801565b604051610244919061316d565b60405180910390f35b610267600480360381019061026291906127ba565b6108b9565b604051610274919061316d565b60405180910390f35b6102856108ea565b6040516102929190612ef1565b60405180910390f35b6102b560048036038101906102b09190612848565b61097c565b6040516102c59493929190613188565b60405180910390f35b6102e860048036038101906102e3919061277e565b610abc565b005b61030460048036038101906102ff9190612703565b610ad2565b005b61030e610b34565b60405161031b9190612eb4565b60405180910390f35b61033e60048036038101906103399190612848565b610ccb565b60405161034b9190612ef1565b60405180910390f35b61035c610eaa565b604051610369919061314b565b60405180910390f35b61038c60048036038101906103879190612678565b61110a565b6040516103999190612ed6565b60405180910390f35b6103bc60048036038101906103b79190612848565b61119e565b005b60007f80ac58cd000000000000000000000000000000000000000000000000000000007bffffffffffffffffffffffffffffffffffffffffffffffffffffffff1916827bffffffffffffffffffffffffffffffffffffffffffffffffffffffff1916148061048957507f5b5e139f000000000000000000000000000000000000000000000000000000007bffffffffffffffffffffffffffffffffffffffffffffffffffffffff1916827bffffffffffffffffffffffffffffffffffffffffffffffffffffffff1916145b806104995750610498826115b6565b5b9050919050565b6060600080546104af90613489565b80601f01602080910402602001604051908101604052809291908181526020018280546104db90613489565b80156105285780601f106104fd57610100808354040283529160200191610528565b820191906000526020600020905b81548152906001019060200180831161050b57829003601f168201915b5050505050905090565b600061053d82611620565b61057c576040517f08c379a0000000000000000000000000000000000000000000000000000000008152600401610573906130eb565b60405180910390fd5b6004600083815260200190815260200160002060009054906101000a900473ffffffffffffffffffffffffffffffffffffffff169050919050565b60006105c28261074f565b90508073ffffffffffffffffffffffffffffffffffffffff168373ffffffffffffffffffffffffffffffffffffffff161415610633576040517f08c379a000000000000000000000000000000000000000000000000000000000815260040161062a9061310b565b60405180910390fd5b8073ffffffffffffffffffffffffffffffffffffffff1661065261168c565b73ffffffffffffffffffffffffffffffffffffffff16148061068157506106808161067b61168c565b61110a565b5b6106c0576040517f08c379a00000000000000000000000000000000000000000000000000000000081526004016106b79061306b565b60405180910390fd5b6106ca8383611694565b505050565b6106e06106da61168c565b8261174d565b61071f576040517f08c379a00000000000000000000000000000000000000000000000000000000081526004016107169061312b565b60405180910390fd5b61072a83838361182b565b505050565b61074a83838360405180602001604052806000815250610ad2565b505050565b6000806002600084815260200190815260200160002060009054906101000a900473ffffffffffffffffffffffffffffffffffffffff169050600073ffffffffffffffffffffffffffffffffffffffff168173ffffffffffffffffffffffffffffffffffffffff1614156107f8576040517f08c379a00000000000000000000000000000000000000000000000000000000081526004016107ef906130ab565b60405180910390fd5b80915050919050565b60008073ffffffffffffffffffffffffffffffffffffffff168273ffffffffffffffffffffffffffffffffffffffff161415610872576040517f08c379a00000000000000000000000000000000000000000000000000000000081526004016108699061308b565b60405180910390fd5b600360008373ffffffffffffffffffffffffffffffffffffffff1673ffffffffffffffffffffffffffffffffffffffff168152602001908152602001600020549050919050565b600a60205281600052604060002081815481106108d557600080fd5b90600052602060002001600091509150505481565b6060600180546108f990613489565b80601f016020809104026020016040519081016040528092919081815260200182805461092590613489565b80156109725780601f1061094757610100808354040283529160200191610972565b820191906000526020600020905b81548152906001019060200180831161095557829003601f168201915b5050505050905090565b60096020528060005260406000206000915090508060000154908060010180546109a590613489565b80601f01602080910402602001604051908101604052809291908181526020018280546109d190613489565b8015610a1e5780601f106109f357610100808354040283529160200191610a1e565b820191906000526020600020905b815481529060010190602001808311610a0157829003601f168201915b505050505090806002018054610a3390613489565b80601f0160208091040260200160405190810160405280929190818152602001828054610a5f90613489565b8015610aac5780601f10610a8157610100808354040283529160200191610aac565b820191906000526020600020905b815481529060010190602001808311610a8f57829003601f168201915b5050505050908060030154905084565b610ace610ac761168c565b8383611a92565b5050565b610ae3610add61168c565b8361174d565b610b22576040517f08c379a0000000000000000000000000000000000000000000000000000000008152600401610b199061312b565b60405180910390fd5b610b2e84848484611bff565b50505050565b60606007805480602002602001604051908101604052809291908181526020016000905b82821015610cc2578382906000526020600020906004020160405180608001604052908160008201548152602001600182018054610b9590613489565b80601f0160208091040260200160405190810160405280929190818152602001828054610bc190613489565b8015610c0e5780601f10610be357610100808354040283529160200191610c0e565b820191906000526020600020905b815481529060010190602001808311610bf157829003601f168201915b50505050508152602001600282018054610c2790613489565b80601f0160208091040260200160405190810160405280929190818152602001828054610c5390613489565b8015610ca05780601f10610c7557610100808354040283529160200191610ca0565b820191906000526020600020905b815481529060010190602001808311610c8357829003601f168201915b5050505050815260200160038201548152505081526020019060010190610b58565b50505050905090565b606060006009600084815260200190815260200160002060405180608001604052908160008201548152602001600182018054610d0790613489565b80601f0160208091040260200160405190810160405280929190818152602001828054610d3390613489565b8015610d805780601f10610d5557610100808354040283529160200191610d80565b820191906000526020600020905b815481529060010190602001808311610d6357829003601f168201915b50505050508152602001600282018054610d9990613489565b80601f0160208091040260200160405190810160405280929190818152602001828054610dc590613489565b8015610e125780601f10610de757610100808354040283529160200191610e12565b820191906000526020600020905b815481529060010190602001808311610df557829003601f168201915b5050505050815260200160038201548152505090506000610e368260600151611c5b565b90506000610e788360200151610e4b87611c5b565b856040015185604051602001610e649493929190612d7f565b604051602081830303815290604052611e08565b9050600081604051602001610e8d9190612df4565b604051602081830303815290604052905080945050505050919050565b610eb26124b3565b6000600a60003373ffffffffffffffffffffffffffffffffffffffff1673ffffffffffffffffffffffffffffffffffffffff168152602001908152602001600020805480602002602001604051908101604052809291908181526020018280548015610f3d57602002820191906000526020600020905b815481526020019060010190808311610f29575b505050505090506000815111156110f957600960008260018451610f61919061339f565b81518110610f98577f4e487b7100000000000000000000000000000000000000000000000000000000600052603260045260246000fd5b6020026020010151815260200190815260200160002060405180608001604052908160008201548152602001600182018054610fd390613489565b80601f0160208091040260200160405190810160405280929190818152602001828054610fff90613489565b801561104c5780601f106110215761010080835404028352916020019161104c565b820191906000526020600020905b81548152906001019060200180831161102f57829003601f168201915b5050505050815260200160028201805461106590613489565b80601f016020809104026020016040519081016040528092919081815260200182805461109190613489565b80156110de5780601f106110b3576101008083540402835291602001916110de565b820191906000526020600020905b8154815290600101906020018083116110c157829003601f168201915b50505050508152602001600382015481525050915050611107565b6111016124b3565b80925050505b90565b6000600560008473ffffffffffffffffffffffffffffffffffffffff1673ffffffffffffffffffffffffffffffffffffffff16815260200190815260200160002060008373ffffffffffffffffffffffffffffffffffffffff1673ffffffffffffffffffffffffffffffffffffffff16815260200190815260200160002060009054906101000a900460ff16905092915050565b60006111aa6006611fc6565b90506111b63382611fd4565b604051806080016040528083815260200160078481548110611201577f4e487b7100000000000000000000000000000000000000000000000000000000600052603260045260246000fd5b9060005260206000209060040201600101805461121d90613489565b80601f016020809104026020016040519081016040528092919081815260200182805461124990613489565b80156112965780601f1061126b57610100808354040283529160200191611296565b820191906000526020600020905b81548152906001019060200180831161127957829003601f168201915b50505050508152602001600784815481106112da577f4e487b7100000000000000000000000000000000000000000000000000000000600052603260045260246000fd5b906000526020600020906004020160020180546112f690613489565b80601f016020809104026020016040519081016040528092919081815260200182805461132290613489565b801561136f5780601f106113445761010080835404028352916020019161136f565b820191906000526020600020905b81548152906001019060200180831161135257829003601f168201915b50505050508152602001600784815481106113b3577f4e487b7100000000000000000000000000000000000000000000000000000000600052603260045260246000fd5b906000526020600020906004020160030154815250600960008381526020019081526020016000206000820151816000015560208201518160010190805190602001906114019291906124db565b50604082015181600201908051906020019061141e9291906124db565b506060820151816003015590505061144f6040518060600160405280602e8152602001613c15602e91398284611ff2565b600a60003373ffffffffffffffffffffffffffffffffffffffff1673ffffffffffffffffffffffffffffffffffffffff1681526020019081526020016000208190806001815401808255809150506001900390600052602060002001600090919091909150556114bf60066115a0565b7f4bc303fd457a97b4691b9af582ce71868a3d258638c8d4f8c60988a0f0bfb8cd3382846040516114f293929190612e7d565b60405180910390a15050565b61159a848484846040516024016115189493929190612f13565b6040516020818303038152906040527f8d142cdd000000000000000000000000000000000000000000000000000000007bffffffffffffffffffffffffffffffffffffffffffffffffffffffff19166020820180517bffffffffffffffffffffffffffffffffffffffffffffffffffffffff8381831617835250505050612091565b50505050565b6001816000016000828254019250508190555050565b60007f01ffc9a7000000000000000000000000000000000000000000000000000000007bffffffffffffffffffffffffffffffffffffffffffffffffffffffff1916827bffffffffffffffffffffffffffffffffffffffffffffffffffffffff1916149050919050565b60008073ffffffffffffffffffffffffffffffffffffffff166002600084815260200190815260200160002060009054906101000a900473ffffffffffffffffffffffffffffffffffffffff1673ffffffffffffffffffffffffffffffffffffffff1614159050919050565b600033905090565b816004600083815260200190815260200160002060006101000a81548173ffffffffffffffffffffffffffffffffffffffff021916908373ffffffffffffffffffffffffffffffffffffffff160217905550808273ffffffffffffffffffffffffffffffffffffffff166117078361074f565b73ffffffffffffffffffffffffffffffffffffffff167f8c5be1e5ebec7d5bd14f71427d1e84f3dd0314c0f7b2291e5b200ac8c7c3b92560405160405180910390a45050565b600061175882611620565b611797576040517f08c379a000000000000000000000000000000000000000000000000000000000815260040161178e9061304b565b60405180910390fd5b60006117a28361074f565b90508073ffffffffffffffffffffffffffffffffffffffff168473ffffffffffffffffffffffffffffffffffffffff1614806117e457506117e3818561110a565b5b8061182257508373ffffffffffffffffffffffffffffffffffffffff1661180a84610532565b73ffffffffffffffffffffffffffffffffffffffff16145b91505092915050565b8273ffffffffffffffffffffffffffffffffffffffff1661184b8261074f565b73ffffffffffffffffffffffffffffffffffffffff16146118a1576040517f08c379a000000000000000000000000000000000000000000000000000000000815260040161189890612fcb565b60405180910390fd5b600073ffffffffffffffffffffffffffffffffffffffff168273ffffffffffffffffffffffffffffffffffffffff161415611911576040517f08c379a00000000000000000000000000000000000000000000000000000000081526004016119089061300b565b60405180910390fd5b61191c8383836120ba565b611927600082611694565b6001600360008573ffffffffffffffffffffffffffffffffffffffff1673ffffffffffffffffffffffffffffffffffffffff1681526020019081526020016000206000828254611977919061339f565b925050819055506001600360008473ffffffffffffffffffffffffffffffffffffffff1673ffffffffffffffffffffffffffffffffffffffff16815260200190815260200160002060008282546119ce91906132be565b92505081905550816002600083815260200190815260200160002060006101000a81548173ffffffffffffffffffffffffffffffffffffffff021916908373ffffffffffffffffffffffffffffffffffffffff160217905550808273ffffffffffffffffffffffffffffffffffffffff168473ffffffffffffffffffffffffffffffffffffffff167fddf252ad1be2c89b69c2b068fc378daa952ba7f163c4a11628f55a4df523b3ef60405160405180910390a4611a8d8383836120bf565b505050565b8173ffffffffffffffffffffffffffffffffffffffff168373ffffffffffffffffffffffffffffffffffffffff161415611b01576040517f08c379a0000000000000000000000000000000000000000000000000000000008152600401611af89061302b565b60405180910390fd5b80600560008573ffffffffffffffffffffffffffffffffffffffff1673ffffffffffffffffffffffffffffffffffffffff16815260200190815260200160002060008473ffffffffffffffffffffffffffffffffffffffff1673ffffffffffffffffffffffffffffffffffffffff16815260200190815260200160002060006101000a81548160ff0219169083151502179055508173ffffffffffffffffffffffffffffffffffffffff168373ffffffffffffffffffffffffffffffffffffffff167f17307eab39ab6107e8899845ad3d59bd9653f200f220920489ca2b5937696c3183604051611bf29190612ed6565b60405180910390a3505050565b611c0a84848461182b565b611c16848484846120c4565b611c55576040517f08c379a0000000000000000000000000000000000000000000000000000000008152600401611c4c90612fab565b60405180910390fd5b50505050565b60606000821415611ca3576040518060400160405280600181526020017f30000000000000000000000000000000000000000000000000000000000000008152509050611e03565b600082905060005b60008214611cd5578080611cbe906134ec565b915050600a82611cce9190613314565b9150611cab565b60008167ffffffffffffffff811115611d17577f4e487b7100000000000000000000000000000000000000000000000000000000600052604160045260246000fd5b6040519080825280601f01601f191660200182016040528015611d495781602001600182028036833780820191505090505b5090505b60008514611dfc57600182611d62919061339f565b9150600a85611d719190613535565b6030611d7d91906132be565b60f81b818381518110611db9577f4e487b7100000000000000000000000000000000000000000000000000000000600052603260045260246000fd5b60200101907effffffffffffffffffffffffffffffffffffffffffffffffffffffffffffff1916908160001a905350600a85611df59190613314565b9450611d4d565b8093505050505b919050565b60606000825190506000811415611e315760405180602001604052806000815250915050611fc1565b60006003600283611e4291906132be565b611e4c9190613314565b6004611e589190613345565b90506000602082611e6991906132be565b67ffffffffffffffff811115611ea8577f4e487b7100000000000000000000000000000000000000000000000000000000600052604160045260246000fd5b6040519080825280601f01601f191660200182016040528015611eda5781602001600182028036833780820191505090505b5090506000604051806060016040528060408152602001613bd5604091399050600181016020830160005b86811015611f7e5760038101905062ffffff818a015116603f8160121c168401518060081b905060ff603f83600c1c1686015116810190508060081b905060ff603f8360061c1686015116810190508060081b905060ff603f831686015116810190508060e01b90508084526004840193505050611f05565b506003860660018114611f985760028114611fa857611fb3565b613d3d60f01b6002830352611fb3565b603d60f81b60018303525b508484525050819450505050505b919050565b600081600001549050919050565b611fee82826040518060200160405280600081525061225b565b5050565b61208c83838360405160240161200a93929190612f6d565b6040516020818303038152906040527f969cdd03000000000000000000000000000000000000000000000000000000007bffffffffffffffffffffffffffffffffffffffffffffffffffffffff19166020820180517bffffffffffffffffffffffffffffffffffffffffffffffffffffffff8381831617835250505050612091565b505050565b60008151905060006a636f6e736f6c652e6c6f679050602083016000808483855afa5050505050565b505050565b505050565b60006120e58473ffffffffffffffffffffffffffffffffffffffff166122b6565b1561224e578373ffffffffffffffffffffffffffffffffffffffff1663150b7a0261210e61168c565b8786866040518563ffffffff1660e01b81526004016121309493929190612e31565b602060405180830381600087803b15801561214a57600080fd5b505af192505050801561217b57506040513d601f19601f82011682018060405250810190612178919061281f565b60015b6121fe573d80600081146121ab576040519150601f19603f3d011682016040523d82523d6000602084013e6121b0565b606091505b506000815114156121f6576040517f08c379a00000000000000000000000000000000000000000000000000000000081526004016121ed90612fab565b60405180910390fd5b805181602001fd5b63150b7a0260e01b7bffffffffffffffffffffffffffffffffffffffffffffffffffffffff1916817bffffffffffffffffffffffffffffffffffffffffffffffffffffffff191614915050612253565b600190505b949350505050565b61226583836122d9565b61227260008484846120c4565b6122b1576040517f08c379a00000000000000000000000000000000000000000000000000000000081526004016122a890612fab565b60405180910390fd5b505050565b6000808273ffffffffffffffffffffffffffffffffffffffff163b119050919050565b600073ffffffffffffffffffffffffffffffffffffffff168273ffffffffffffffffffffffffffffffffffffffff161415612349576040517f08c379a0000000000000000000000000000000000000000000000000000000008152600401612340906130cb565b60405180910390fd5b61235281611620565b15612392576040517f08c379a000000000000000000000000000000000000000000000000000000000815260040161238990612feb565b60405180910390fd5b61239e600083836120ba565b6001600360008473ffffffffffffffffffffffffffffffffffffffff1673ffffffffffffffffffffffffffffffffffffffff16815260200190815260200160002060008282546123ee91906132be565b92505081905550816002600083815260200190815260200160002060006101000a81548173ffffffffffffffffffffffffffffffffffffffff021916908373ffffffffffffffffffffffffffffffffffffffff160217905550808273ffffffffffffffffffffffffffffffffffffffff16600073ffffffffffffffffffffffffffffffffffffffff167fddf252ad1be2c89b69c2b068fc378daa952ba7f163c4a11628f55a4df523b3ef60405160405180910390a46124af600083836120bf565b5050565b6040518060800160405280600081526020016060815260200160608152602001600081525090565b8280546124e790613489565b90600052602060002090601f0160209004810192826125095760008555612550565b82601f1061252257805160ff1916838001178555612550565b82800160010185558215612550579182015b8281111561254f578251825591602001919060010190612534565b5b50905061255d9190612561565b5090565b5b8082111561257a576000816000905550600101612562565b5090565b600061259161258c84613200565b6131db565b9050828152602081018484840111156125a957600080fd5b6125b4848285613447565b509392505050565b6000813590506125cb81613b78565b92915050565b6000813590506125e081613b8f565b92915050565b6000813590506125f581613ba6565b92915050565b60008151905061260a81613ba6565b92915050565b600082601f83011261262157600080fd5b813561263184826020860161257e565b91505092915050565b60008135905061264981613bbd565b92915050565b60006020828403121561266157600080fd5b600061266f848285016125bc565b91505092915050565b6000806040838503121561268b57600080fd5b6000612699858286016125bc565b92505060206126aa858286016125bc565b9150509250929050565b6000806000606084860312156126c957600080fd5b60006126d7868287016125bc565b93505060206126e8868287016125bc565b92505060406126f98682870161263a565b9150509250925092565b6000806000806080858703121561271957600080fd5b6000612727878288016125bc565b9450506020612738878288016125bc565b93505060406127498782880161263a565b925050606085013567ffffffffffffffff81111561276657600080fd5b61277287828801612610565b91505092959194509250565b6000806040838503121561279157600080fd5b600061279f858286016125bc565b92505060206127b0858286016125d1565b9150509250929050565b600080604083850312156127cd57600080fd5b60006127db858286016125bc565b92505060206127ec8582860161263a565b9150509250929050565b60006020828403121561280857600080fd5b6000612816848285016125e6565b91505092915050565b60006020828403121561283157600080fd5b600061283f848285016125fb565b91505092915050565b60006020828403121561285a57600080fd5b60006128688482850161263a565b91505092915050565b600061287d8383612c8d565b905092915050565b61288e816133d3565b82525050565b600061289f82613241565b6128a9818561326f565b9350836020820285016128bb85613231565b8060005b858110156128f757848403895281516128d88582612871565b94506128e383613262565b925060208a019950506001810190506128bf565b50829750879550505050505092915050565b612912816133e5565b82525050565b60006129238261324c565b61292d8185613280565b935061293d818560208601613456565b61294681613622565b840191505092915050565b600061295c82613257565b6129668185613291565b9350612976818560208601613456565b61297f81613622565b840191505092915050565b600061299582613257565b61299f81856132a2565b93506129af818560208601613456565b6129b881613622565b840191505092915050565b60006129ce82613257565b6129d881856132b3565b93506129e8818560208601613456565b80840191505092915050565b6000612a01600b836132b3565b9150612a0c82613633565b600b82019050919050565b6000612a246032836132a2565b9150612a2f8261365c565b604082019050919050565b6000612a47606d836132b3565b9150612a52826136ab565b606d82019050919050565b6000612a6a6025836132a2565b9150612a7582613746565b604082019050919050565b6000612a8d601c836132a2565b9150612a9882613795565b602082019050919050565b6000612ab06024836132a2565b9150612abb826137be565b604082019050919050565b6000612ad36019836132a2565b9150612ade8261380d565b602082019050919050565b6000612af6602c836132a2565b9150612b0182613836565b604082019050919050565b6000612b196038836132a2565b9150612b2482613885565b604082019050919050565b6000612b3c602a836132a2565b9150612b47826138d4565b604082019050919050565b6000612b5f6029836132a2565b9150612b6a82613923565b604082019050919050565b6000612b826020836132a2565b9150612b8d82613972565b602082019050919050565b6000612ba5602c836132a2565b9150612bb08261399b565b604082019050919050565b6000612bc8600a836132b3565b9150612bd3826139ea565b600a82019050919050565b6000612beb6021836132a2565b9150612bf682613a13565b604082019050919050565b6000612c0e601d836132b3565b9150612c1982613a62565b601d82019050919050565b6000612c316031836132a2565b9150612c3c82613a8b565b604082019050919050565b6000612c546040836132b3565b9150612c5f82613ada565b604082019050919050565b6000612c77603d836132b3565b9150612c8282613b29565b603d82019050919050565b6000608083016000830151612ca56000860182612d61565b5060208301518482036020860152612cbd8282612951565b91505060408301518482036040860152612cd78282612951565b9150506060830151612cec6060860182612d61565b508091505092915050565b6000608083016000830151612d0f6000860182612d61565b5060208301518482036020860152612d278282612951565b91505060408301518482036040860152612d418282612951565b9150506060830151612d566060860182612d61565b508091505092915050565b612d6a8161343d565b82525050565b612d798161343d565b82525050565b6000612d8a82612bbb565b9150612d9682876129c3565b9150612da1826129f4565b9150612dad82866129c3565b9150612db882612a3a565b9150612dc482856129c3565b9150612dcf82612c6a565b9150612ddb82846129c3565b9150612de682612c47565b915081905095945050505050565b6000612dff82612c01565b9150612e0b82846129c3565b915081905092915050565b6000602082019050612e2b6000830184612885565b92915050565b6000608082019050612e466000830187612885565b612e536020830186612885565b612e606040830185612d70565b8181036060830152612e728184612918565b905095945050505050565b6000606082019050612e926000830186612885565b612e9f6020830185612d70565b612eac6040830184612d70565b949350505050565b60006020820190508181036000830152612ece8184612894565b905092915050565b6000602082019050612eeb6000830184612909565b92915050565b60006020820190508181036000830152612f0b818461298a565b905092915050565b60006080820190508181036000830152612f2d818761298a565b90508181036020830152612f41818661298a565b9050612f506040830185612d70565b8181036060830152612f62818461298a565b905095945050505050565b60006060820190508181036000830152612f87818661298a565b9050612f966020830185612d70565b612fa36040830184612d70565b949350505050565b60006020820190508181036000830152612fc481612a17565b9050919050565b60006020820190508181036000830152612fe481612a5d565b9050919050565b6000602082019050818103600083015261300481612a80565b9050919050565b6000602082019050818103600083015261302481612aa3565b9050919050565b6000602082019050818103600083015261304481612ac6565b9050919050565b6000602082019050818103600083015261306481612ae9565b9050919050565b6000602082019050818103600083015261308481612b0c565b9050919050565b600060208201905081810360008301526130a481612b2f565b9050919050565b600060208201905081810360008301526130c481612b52565b9050919050565b600060208201905081810360008301526130e481612b75565b9050919050565b6000602082019050818103600083015261310481612b98565b9050919050565b6000602082019050818103600083015261312481612bde565b9050919050565b6000602082019050818103600083015261314481612c24565b9050919050565b600060208201905081810360008301526131658184612cf7565b905092915050565b60006020820190506131826000830184612d70565b92915050565b600060808201905061319d6000830187612d70565b81810360208301526131af818661298a565b905081810360408301526131c3818561298a565b90506131d26060830184612d70565b95945050505050565b60006131e56131f6565b90506131f182826134bb565b919050565b6000604051905090565b600067ffffffffffffffff82111561321b5761321a6135f3565b5b61322482613622565b9050602081019050919050565b6000819050602082019050919050565b600081519050919050565b600081519050919050565b600081519050919050565b6000602082019050919050565b600082825260208201905092915050565b600082825260208201905092915050565b600082825260208201905092915050565b600082825260208201905092915050565b600081905092915050565b60006132c98261343d565b91506132d48361343d565b9250827fffffffffffffffffffffffffffffffffffffffffffffffffffffffffffffffff0382111561330957613308613566565b5b828201905092915050565b600061331f8261343d565b915061332a8361343d565b92508261333a57613339613595565b5b828204905092915050565b60006133508261343d565b915061335b8361343d565b9250817fffffffffffffffffffffffffffffffffffffffffffffffffffffffffffffffff048311821515161561339457613393613566565b5b828202905092915050565b60006133aa8261343d565b91506133b58361343d565b9250828210156133c8576133c7613566565b5b828203905092915050565b60006133de8261341d565b9050919050565b60008115159050919050565b60007fffffffff0000000000000000000000000000000000000000000000000000000082169050919050565b600073ffffffffffffffffffffffffffffffffffffffff82169050919050565b6000819050919050565b82818337600083830152505050565b60005b83811015613474578082015181840152602081019050613459565b83811115613483576000848401525b50505050565b600060028204905060018216806134a157607f821691505b602082108114156134b5576134b46135c4565b5b50919050565b6134c482613622565b810181811067ffffffffffffffff821117156134e3576134e26135f3565b5b80604052505050565b60006134f78261343d565b91507fffffffffffffffffffffffffffffffffffffffffffffffffffffffffffffffff82141561352a57613529613566565b5b600182019050919050565b60006135408261343d565b915061354b8361343d565b92508261355b5761355a613595565b5b828206905092915050565b7f4e487b7100000000000000000000000000000000000000000000000000000000600052601160045260246000fd5b7f4e487b7100000000000000000000000000000000000000000000000000000000600052601260045260246000fd5b7f4e487b7100000000000000000000000000000000000000000000000000000000600052602260045260246000fd5b7f4e487b7100000000000000000000000000000000000000000000000000000000600052604160045260246000fd5b6000601f19601f8301169050919050565b7f202d2d204e465420233a20000000000000000000000000000000000000000000600082015250565b7f4552433732313a207472616e7366657220746f206e6f6e20455243373231526560008201527f63656976657220696d706c656d656e7465720000000000000000000000000000602082015250565b7f222c20226465736372697074696f6e223a2022437269746963616c486974206960008201527f732061207475726e2d6261736564204e46542067616d6520776865726520796f60208201527f752074616b65207475726e7320746f2061747461636b2074686520626f73732e60408201527f222c2022696d616765223a202200000000000000000000000000000000000000606082015250565b7f4552433732313a207472616e736665722066726f6d20696e636f72726563742060008201527f6f776e6572000000000000000000000000000000000000000000000000000000602082015250565b7f4552433732313a20746f6b656e20616c7265616479206d696e74656400000000600082015250565b7f4552433732313a207472616e7366657220746f20746865207a65726f2061646460008201527f7265737300000000000000000000000000000000000000000000000000000000602082015250565b7f4552433732313a20617070726f766520746f2063616c6c657200000000000000600082015250565b7f4552433732313a206f70657261746f7220717565727920666f72206e6f6e657860008201527f697374656e7420746f6b656e0000000000000000000000000000000000000000602082015250565b7f4552433732313a20617070726f76652063616c6c6572206973206e6f74206f7760008201527f6e6572206e6f7220617070726f76656420666f7220616c6c0000000000000000602082015250565b7f4552433732313a2062616c616e636520717565727920666f7220746865207a6560008201527f726f206164647265737300000000000000000000000000000000000000000000602082015250565b7f4552433732313a206f776e657220717565727920666f72206e6f6e657869737460008201527f656e7420746f6b656e0000000000000000000000000000000000000000000000602082015250565b7f4552433732313a206d696e7420746f20746865207a65726f2061646472657373600082015250565b7f4552433732313a20617070726f76656420717565727920666f72206e6f6e657860008201527f697374656e7420746f6b656e0000000000000000000000000000000000000000602082015250565b7f7b226e616d65223a202200000000000000000000000000000000000000000000600082015250565b7f4552433732313a20617070726f76616c20746f2063757272656e74206f776e6560008201527f7200000000000000000000000000000000000000000000000000000000000000602082015250565b7f646174613a6170706c69636174696f6e2f6a736f6e3b6261736536342c000000600082015250565b7f4552433732313a207472616e736665722063616c6c6572206973206e6f74206f60008201527f776e6572206e6f7220617070726f766564000000000000000000000000000000602082015250565b7f2c20226d61785f76616c7565223a20333030207d2c207b202274726169745f7460008201527f797065223a202241747461636b2044616d616765222c202276616c7565223a20602082015250565b7f222c202261747472696275746573223a205b207b202274726169745f7479706560008201527f223a20224865616c746820506f696e7473222c202276616c7565223a20000000602082015250565b613b81816133d3565b8114613b8c57600080fd5b50565b613b98816133e5565b8114613ba357600080fd5b50565b613baf816133f1565b8114613bba57600080fd5b50565b613bc68161343d565b8114613bd157600080fd5b5056fe4142434445464748494a4b4c4d4e4f505152535455565758595a6162636465666768696a6b6c6d6e6f707172737475767778797a303132333435363738392b2f4d696e746564204e465420772f20746f6b656e496420257320616e6420636861726163746572496e646578202573a26469706673582212201b24f6caf18bde5eb73aab92ea93089a99896d3ea7acb5e2c1616949d29021a964736f6c63430008010033446f6e6520696e697469616c697a696e6720257320772f2048502025732c20696d67202573",
  "linkReferences": {},
  "deployedLinkReferences": {}
}